:020000040800F2
:1000000000500020ED390008A5060008A7060008EA
:10001000A9060008AB060008AD06000800000000B5
:10002000000000000000000000000000AF06000813
:10003000B106000800000000B3060008B50600087D
:10004000353A0008353A0008353A0008353A0008D4
:10005000353A0008353A0008353A0008353A0008C4
:10006000353A0008353A0008353A0008353A0008B4
:10007000C1060008353A0008353A0008353A00084C
:10008000353A0008353A0008353A0008353A000894
:10009000D1060008353A0008353A0008353A00081C
:1000A000353A0008353A0008353A0008353A000874
:1000B000353A0008E1060008353A0008353A0008EC
:1000C000353A0008353A0008353A0008353A000854
:1000D000353A0008353A0008353A0008353A000844
:1000E000353A0008353A0008353A000800000000AB
:1000F0000000000000000000000000000000000000
:0C01000000000000000000005FF808F1A3
:10010C0010B5054C237833B9044B13B10448AFF345
:10011C0000800123237010BD60010020000000004E
:10012C00983A000808B5034B1BB103490348AFF3D9
:10013C00008008BD0000000064010020983A00080F
:10014C0010B584B0012301934FF4005300930223A4
:10015C000393002402946946044800F035FD044BD7
:10016C001C705C609C609C8104B010BD0010014050
:10017C007C01002008B502464FF40051034800F002
:10018C000DFE034B00221A7008BD00BF0010014089
:10019C007C01002070B50D461646074C8A000146BE
:1001AC0004F1100003F066FC66600023A3600122DA
:1001BC0022702566A38170BD7C010020384B1B7812
:1001CC00002B67D010B5364B9B89602B2ED0632B40
:1001DC0046D023B1324B00229A81032010BD304B04
:1001EC0000225A6643E02E4B0020187098609881CC
:1001FC00F4E72B4C626E531C04EB82021269A2666C
:10020C005A1C626604EB83031B69E36600224FF4FD
:10021C000051244800F0C2FD2346002223F8702F21
:10022C00636700F06FFBA0676023A3811C48816E9D
:10023C00743000F073F901282ED901224FF40051CB
:10024C00184800F0ABFD164C2346002223F87C2FF7
:10025C00C4F8803000F056FBC4F884006323A381FB
:10026C000F48C16E803000F059F9012816D90C4B9B
:10027C005A6E1B6E9A42BCD3094B00225A665B68BD
:10028C00002BB6D0064A92689342ACD90132044B8B
:10029C009A60AEE70120704700209FE700209DE7A1
:1002AC007C0100200010014084B00F4B9A6942F091
:1002BC0020029A619A6902F020020192019A9A69CD
:1002CC0042F004029A619A6902F004020292029AC4
:1002DC009A6942F010029A619B6903F01003039330
:1002EC00039B04B0704700BF0010024000B583B000
:1002FC000A4B5A6942F001025A615B6903F001032F
:10030C000193019B002211460C2000F013FB0C20E2
:10031C0000F044FB03B05DF804FB00BF001002408A
:10032C0008B5002211461D2000F004FB1D2000F032
:10033C0035FB08BDFEE7000000B58DB01F484FF03F
:10034C0080430360002343608360C3600361836167
:10035C0001F02EFF00BB0CA94FF4805341F8103D67
:10036C00164801F085FDD8B9062303937023049336
:10037C00002305930693079303A9104801F0FCFD95
:10038C0090B900230193029301A90C4801F029FFB5
:10039C0070B90DB05DF804FBE9210948FFF7CAFFFD
:1003AC00EF210748FFF7C6FFF9210548FFF7C2FF09
:1003BC004FF480710248FFF7BDFF00BFD40400204A
:1003CC00F43A000800B587B01748184B03600023B7
:1003DC00436083604822C2600361836101F0E8FEE0
:1003EC0098B906A94FF4805341F8103D0E4801F01E
:1003FC003FFD78B900230093019369460A4801F048
:10040C00F0FE60B907B05DF804FB4FF48A71084840
:10041C00FFF790FF4FF48D710548FFF78BFF40F20B
:10042C0021110348FFF786FF9404002000040040CC
:10043C00F43A000800B595B001220A924FF48033CB
:10044C000B9300210C910E920222119212934FF4F5
:10045C00E01313930AA801F027F948BB0F23059367
:10046C0002210691002307934FF4806208920993AE
:10047C0005A801F03FFBF8B9102301930023049366
:10048C0001A801F0F9FBD8B901F0F0FB0E4BA3FB6E
:10049C000030800900F08EFA042000F0A1FA00224E
:1004AC0011464FF0FF3000F045FA15B05DF804FB33
:1004BC00AA210648FFF73EFFB8210448FFF73AFF90
:1004CC00BF210248FFF736FFD34D6210F43A000803
:1004DC0008B500F0F9F9104B00221A809A80FFF74A
:1004EC00A9FFFFF7E1FEFFF701FF03F07FF8FFF72D
:1004FC0023FFFFF767FFFFF713FFFFF721FE012034
:10050C00FFF738FE044C204600F088F9FFF756FE42
:10051C00201D00F01DF9F5E70402002038B5026833
:10052C0013885BB10D4604460C2B0BD100F0EAF995
:10053C006368C01AA84205D8012007E00C23138079
:10054C00012003E0236800221A80032038BD00003C
:10055C0000B583B0244B9A6942F001029A619A6902
:10056C0002F001020092009ADA6942F08052DA61DC
:10057C00DB6903F080530193019B032000F0C8F961
:10058C00002211466FF00B0000F0D4F90022114646
:10059C006FF00A0000F0CEF9002211466FF009004E
:1005AC0000F0C8F9002211466FF0040000F0C2F907
:1005BC00002211466FF0030000F0BCF90022114636
:1005CC006FF0010000F0B6F9002211464FF0FF3039
:1005DC0000F0B0F9054A536823F0E06343F0007370
:1005EC00536003B05DF804FB0010024000000140B2
:1005FC0030B587B00368B3F1804F04D0204A9342E2
:10060C0033D007B030BD044603F50433DA6942F049
:10061C000102DA61DB6903F001030093009B012303
:10062C00029300250395049302A9164800F0CCFA16
:10063C001548164B0360456085608023C3604FF4FA
:10064C00807303614FF48063436185614FF44053C1
:10065C00C36100F0DBF918B90B4B23625C62D0E785
:10066C0080210B48FFF766FEF6E70A4BDA6942F089
:10067C000202DA61DB6903F002030193019BC0E71C
:10068C000004004000080140500400201C000240FF
:10069C00083B0008001002407047FEE7FEE7FEE74B
:1006AC00FEE770477047704708B500F01FF900F07F
:1006BC00A8F908BD08B5024800F0E4F908BD00BF70
:1006CC005004002008B5024800F0BAFE08BD00BF77
:1006DC000C11002008B5024801F073FC08BD00BFE6
:1006EC00940400200F4B1A6842F001021A605968FA
:1006FC000D4A0A405A601A6822F0847222F4803241
:10070C001A601A6822F480221A605A6822F4FE02D7
:10071C005A604FF41F029A60044B4FF000629A60CB
:10072C00704700BF001002400000FFF800ED00E031
:10073C0008B50021084602F09BFF18B1034B0022BC
:10074C001A7008BD014B01221A70FAE72E02002024
:10075C0038B5044603882BB13B2B21D000230380F2
:10076C00032038BD284BFF221A7001225A701EE05C
:10077C00FFF7DEFF254B1B78002B32D0234B1B7869
:10078C00DBB2214A1278934223D11F4D2B46002213
:10079C0023F8042FAB6000F0B5F8E8603B2323800E
:1007AC004FF4FA711A48FFF7B9FE01282AD9194BF0
:1007BC0093F8FC31032BDBD0134A52789342E4D0EC
:1007CC000120FFF7D7FC134B93F8FC210E4B5A700A
:1007DC00DBE70020FFF7CEFC0C4B1A780A4B1A70A3
:1007EC00D3E70A4B1B78DBB2074A12789342CCD082
:1007FC00002206210848FFF7CDFC044B1A78024B67
:10080C001A70C2E70020ACE70C0200202E02002078
:10081C001402002018050020C83A000838B5044618
:10082C000388CBB11A2B0CD000230380032038BDD6
:10083C000F4D00232B806D6000F064F8A8601A2324
:10084C0023804FF47A710B48FFF768FE01280DD90D
:10085C00074AD3680133D360074B93F8FC31032B61
:10086C00E6D10D21054802F003FFE1E70020DEE7A9
:10087C001C0200202002002018050020283B000844
:10088C0010B504460E4B18784FF47A73B3FBF0F3A3
:10089C000C4A1068B0FBF3F000F08CF868B90F2C20
:1008AC0001D901200AE0002221464FF0FF3000F070
:1008BC0041F8034B5C60002000E0012010BD00BF3C
:1008CC00040000200000002008B5074A136843F01C
:1008DC0010031360032000F01BF80020FFF7D0FF7B
:1008EC00FFF736FE002008BD00200240034A1168C5
:1008FC00034B1B780B441360704700BF140500209A
:10090C0004000020014B1868704700BF140500203C
:10091C00074AD36823F4E0631B041B0C000200F4A9
:10092C00E060184340F0BF6040F40030D060704786
:10093C0000ED00E030B4174BDB68C3F30223C3F1C6
:10094C000704042C28BF04241D1D062D18D9033BB5
:10095C004FF0FF3505FA04F421EA0401994005FA39
:10096C0003F322EA0303194300280BDB0901C9B284
:10097C0000F1604000F5614080F8001330BC704716
:10098C000023E5E700F00F000901C9B2024B19542E
:10099C00F4E700BF00ED00E014ED00E000F01F02F2
:1009AC00400901239340024A42F82030704700BFAF
:1009BC0000E100E00138B0F1807F0AD2064B5860AC
:1009CC00064AF02182F823100020986007221A6052
:1009DC0070470120704700BF10E000E000ED00E020
:1009EC00042805D0054A136823F0040313607047EC
:1009FC00024A136843F004031360704710E000E0F0
:100A0C00704708B5FFF7FCFF08BD0000002830D088
:100A1C0010B403460168184A0A441848A0FB0202A5
:100A2C00120992001A64164ADA63022283F8212012
:100A3C00086820F47F5020F030005A689C682243EC
:100A4C00DC6822431C6922435C6922439C69224373
:100A5C00DC69224302430A6000209862D862186362
:100A6C0058639863012283F8212083F8200010BC7E
:100A7C0070470120704700BFF8FFFDBFCDCCCCCC38
:100A8C000000024038B5C36B1A6804682568016C15
:100A9C0004238B40134235D015F0040F32D0236859
:100AAC0013F0200F03D1236823F0040323600368A1
:100ABC00434A934214D01432934218D014329342C6
:100ACC0017D01432934217D01432934217D01432E9
:100ADC00934202D04FF0806203E04FF4800200E0BA
:100AEC000422384B5A60C36A03B1984738BD402280
:100AFC00F7E74FF48062F4E74FF48042F1E74FF4EC
:100B0C008022EEE702238B4013423CD015F0020FFB
:100B1C0039D0236813F0200F06D1236823F00A0381
:100B2C002360012380F821300368254A934214D0B6
:100B3C00143293421CD0143293421BD01432934281
:100B4C001BD0143293421BD01432934202D04FF07C
:100B5C00007203E04FF4001200E00222194B5A60BD
:100B6C00002380F82030836A002BBFD09847BDE764
:100B7C002022F3E74FF40072F0E74FF40052EDE758
:100B8C004FF40032EAE7082303FA01F11142ADD029
:100B9C0015F0080FAAD0236823F00E032360026C13
:100BAC00C16B012303FA02F24A60836380F821309F
:100BBC00002380F82030036B002B97D0984795E7E3
:100BCC000800024000000240F0B482B00026354616
:100BDC00A1E0002C59D0012C00D1CE68FF2B68D895
:100BEC008446FF2B68D8AC00DCF800200F27A74008
:100BFC0022EA070206FA04F42243CCF800204A68E1
:100C0C0012F0805F00F086805E4A946944F0010423
:100C1C009461926902F001020192019AAC08A71C3E
:100C2C00594A52F8272005F00307BF004FF00F0C6C
:100C3C000CFA07FC22EA0C0C544A904242D002F502
:100C4C00806290427FD002F5806290427DD002F5A6
:100C5C008062904234D0042235E04D4FBC4214D017
:100C6C000BD94C4FBC4210D007F58037BC420CD08E
:100C7C00A7F58017BC42B1D107E0A7F58017BC429D
:100C8C0003D007F58037BC42A8D18C687CB1012C0D
:100C9C0008D042610826A1E7CE6808369EE7CE68E8
:100CAC000C369BE70261082698E7002696E7042697
:100CBC0094E700F1040C94E7A5F10804A40093E771
:100CCC00032200E00022BA4042EA0C0202342E4F0A
:100CDC0047F824204A6812F4803F38D02E4C226802
:100CEC001A4322604A6812F4003F36D02A4C6268DC
:100CFC001A4362604A6812F4801F34D0264CA268F2
:100D0C001A43A2604A6812F4001F32D0224CE268E7
:100D1C001343E36001350F2D31D80122AA400B6833
:100D2C0013409A42F6D14C68122CB8D095D8022CAC
:100D3C00B2D07FF64EAF032CB7D0112C7FF44EAF50
:100D4C00CE6804364AE70122BDE70222BBE7124C0B
:100D5C00226822EA03022260C4E70F4C626822EA8E
:100D6C0003026260C6E70C4CA26822EA0302A2608E
:100D7C00C8E7094CE26822EA0303E360CAE702B061
:100D8C00F0BC704700100240000001400008014018
:100D9C0000002110000031100004014012B90904B8
:100DAC000161704701617047002866D0F0B587B0CB
:100DBC00044690F82934C3B1032384F829342068FD
:100DCC0001F049FA254655F8107B6E460FCD0FC63B
:100DDC002B683360231D0ECB384601F02DFA002111
:100DEC00206801F042FA002315E080F8283402F064
:100DFC00B7FCE1E704EB4312012182F8291082F8D9
:100E0C0028309386002182F82B109163D1639A1CB1
:100E1C005201A15001330E2BECD9002312E004EB4C
:100E2C004312002182F8291282F82832938682F824
:100E3C002B12C2F83812C2F83C1203F11202520102
:100E4C00A15001330E2BEAD9254655F8107B6E467E
:100E5C000FCD0FC62B683360231D0ECB384601F027
:100E6C0006FA002584F82450012384F829342068DC
:100E7C0001F011FD284607B0F0BD0120704790F835
:100E8C002834012B10D010B50446012180F8281409
:100E9C0002F0A5FD206801F0FCFC206801F0D3F9FC
:100EAC00002084F8280410BD0220704790F82834E4
:100EBC00012B0DD010B50446012380F8283480F89E
:100ECC002410006801F0DFFC002084F8280410BD19
:100EDC000220704738B54DB2002D1CDB01F07F04A9
:100EEC00640104F50A74044401F07F012170ED0FD4
:100EFC0065702261E37090F82834012B11D00546FF
:100F0C00012380F828342146006801F0C6F900203E
:100F1C0085F8280438BD01F07F04640128340444AA
:100F2C00E2E70220F6E74AB2002A1BDB01F07F035E
:100F3C005B0103F50A73034401F07F011970D20FB2
:100F4C005A7090F82824012A12D010B504460122B8
:100F5C0080F828241946006801F033FB002084F83F
:100F6C00280410BD01F07F035B0128330344E3E741
:100F7C000220704770B501F07F056C0104F50A7111
:100F8C0001440444C4F83C2205F1120252018618B3
:100F9C0083500023736084F8293284F8285225B1D9
:100FAC00006801F094FC002070BD006801F08FFC1B
:100FBC00F9E701F00F01123100EB411188887047FD
:100FCC0070B501F07F056C0104F128010144044463
:100FDC00E263AA1C5201861883500023736001231C
:100FEC0084F8293084F8285025B1006801F06FFC92
:100FFC00002070BD006801F06AFCF9E770B582B0A2
:10100C0004460023ADF80630ADF804302068B0F883
:10101C0044309BB2ADF8063013F4004F00F00D8253
:10102C00BDF8065015F00F0540F0C280BDF8063033
:10103C0013F0100F50D003889BB2ADF80430BDF8FC
:10104C00043013F4006F79D1BDF8043013F4004F61
:10105C00DCD0038823F070031B051B0D0380206874
:10106C00B0F8503094F8282203EBC203063300EB9F
:10107C004303D3F80034C3F30903C4F84432002B00
:10108C007CD10021204602F093FB2368B3F850205A
:10109C00063203EB4203D4F838123E297CD9C1F353
:1010AC004F1211F01F0F01D1013A92B26FEAC262D6
:1010BC006FEA524292B2C3F80024226813889BB2A2
:1010CC0023F4804323F0700383F4405343F4004330
:1010DC0043F08003138099E703889BB223F4E14328
:1010EC0023F070039BB203802268B2F8503094F85E
:1010FC00281003EBC103023302EB4303D3F8003493
:10110C00C3F309036364E26B1344E36300212046D9
:10111C0002F058FB94F82430002B3FF477AF236C8B
:10112C00002B7FF473AF94F82430226843F08003D3
:10113C00A2F84C30002384F8243067E7B0F8503024
:10114C0094F8282203EBC203063300EB4303D3F8D5
:10115C000034C3F30903C4F84432B4F82C2204F26B
:10116C002C4101F011FD2268138823F070031B053C
:10117C001B0D1380204602F013FB47E7B4F82C221A
:10118C00D4F83C1201F000FDD4F84422D4F83C32DF
:10119C001344C4F83C3274E7C1F34F0211F0010F51
:1011AC0001D0013292B2920292B2C3F8002484E7C9
:1011BC0030F825309BB2ADF80430BDF8043013F490
:1011CC00004F35D1BDF8043013F0800F3FF41EAF43
:1011DC00226832F825309BB223F4E14323F07003EC
:1011EC009BB222F8253004EB451393F83230002BD8
:1011FC0040F0B2802068B0F8503004EB451292F801
:10120C00282003EBC203023300EB4303D3F8003472
:10121C00C3F30903AA1C04EB42125360002B00F029
:10122C00C68004EB45118A8DC96B01F03BFBBEE017
:10123C0030F8253023F070031B051B0D20F82530EA
:10124C0004EB451393F83232D3B92068B0F8503020
:10125C0004EB451292F8282203EBC203063300EB91
:10126C004303B3F80064C6F3090686B304EB4511D7
:10127C003346B1F82C22D1F83C1201F085FC26E063
:10128C00206804EB451393F8282230F8223013F42D
:10129C00804F42D0B0F8503003EBC203023300EB66
:1012AC004303B3F80064C6F3090666BB226804EB7B
:1012BC00451393F8281232F8213023F0F0031B0564
:1012CC001B0D43F4004343F0C00322F8213005F119
:1012DC0012035B01E1184A6832444A6004EB451181
:1012EC00D1F83C223244C1F83C22E3581BB1D1F86E
:1012FC0038128E4228D204EB451393F8281220465C
:10130C0002F056FA5EE704EB45113346B1F82E2293
:10131C00D1F83C1201F038FCC8E7B0F8503003EBC0
:10132C00C203063300EB4303B3F80064C6F30906AB
:10133C00002EBBD004EB45113346B1F83022D1F866
:10134C003C1201F021FCB1E704EB451191F8281295
:10135C002046FFF70FFE35E7206804EB451393F8A2
:10136C00282030F8223013F0400F46D0B0F850301F
:10137C0003EBC203023300EB4303D3F80034C3F393
:10138C000903AA1C04EB421253607BBB226804EBDA
:10139C00451393F8281032F8213023F0F0031B0585
:1013AC001B0D43F4404343F0800322F821302268A4
:1013BC00B2F8503004EB451090F8281003EBC10341
:1013CC00023302EB4303D3F80024C2F30902AB1C33
:1013DC005B01E1184A60C16B0A44C263E35823BB4A
:1013EC0090F82810204602F0EDF90FE604EB4511B9
:1013FC00CA8DC96B01F056FAC8E7B0F8503003EB50
:10140C00C203063300EB4303D3F80034C3F30903E0
:10141C00AA1C04EB42125360002BB7D004EB45110D
:10142C000A8EC96B01F03EFAB0E704EB451595F84E
:10143C0028102046FFF7C4FDE8E5002002B070BD7F
:10144C0010B50446006801F028FA10F4004F45D19D
:10145C00206801F022FA10F4806F43D1206801F06B
:10146C001CFA10F4804F08D02268B2F844309BB2BA
:10147C0023F480439BB2A2F84430206801F00DFAAB
:10148C0010F4005F08D02268B2F844309BB223F409
:10149C0000539BB2A2F84430206801F0FEF910F41E
:1014AC00805F30D1206801F0F8F910F4006F49D159
:1014BC00206801F0F2F910F4007F64D1206801F08B
:1014CC00ECF910F4807F08D02268B2F844309BB25B
:1014DC0023F480739BB2A2F8443010BD2046FFF772
:1014EC008DFDB5E72268B2F844309BB223F48063DB
:1014FC009BB2A2F84430204602F073F9002120463A
:10150C00FFF7D4FCAAE72268B2F840309BB223F074
:10151C0004039BB2A2F840302268B2F840309BB270
:10152C0023F008039BB2A2F84030204602F076F973
:10153C002268B2F844309BB223F480539BB2A2F8D9
:10154C004430AFE72268B2F8403043F00803A2F809
:10155C0040302268B2F844309BB223F400639BB253
:10156C00A2F844302268B2F8403043F00403A2F8E9
:10157C004030206801F091F910F4805F98D120463A
:10158C0002F03CF994E72268B2F844309BB223F4A1
:10159C0000739BB2A2F84430204602F01CF98DE790
:1015AC0038B54AB2002A1BDB4B0103F50A7303441E
:1015BC0001249C7001F07F051D70D20F5A7090F8B9
:1015CC002824A24218D00446012280F82824194667
:1015DC00006801F0D8F84DB1002084F8280438BD1B
:1015EC0001F07F035B0128330344E1E704F22C4153
:1015FC00206801F055F9EFE70220F0E710B54AB288
:10160C00002A1ADB4B0103F50A73034400249C7077
:10161C0001F07F011970D20F5A7090F82824012A1A
:10162C0011D00446012280F828241946006801F0E4
:10163C00E1F8002084F8280410BD01F07F035B0161
:10164C0028330344E2E70220F6E711F0800F0CD0B8
:10165C0001F07F014901283101445AB101228A72FB
:10166C00CB801B0C0B8100207047490101F50A71DE
:10167C000144F2E78A728B80F5E7000082B0084BD8
:10168C001B68084AA2FB03235B0A00FB03F00190D2
:10169C0000BF019B5A1E0192002BF9D102B070477A
:1016AC0000000020D34D621070B582B00446036870
:1016BC0013F0010F2CD0AB4B5B6803F00C03042B25
:1016CC001DD0A84B5B6803F00C03082B12D0636889
:1016DC00B3F5803F41D0002B55D103F1804303F586
:1016EC0004331A6822F480321A601A6822F48022B9
:1016FC001A6037E09B4B5B6813F4803FE7D0994B43
:10170C001B6813F4003F03D06368002B00F0AE811C
:10171C00236813F0020F76D0924B5B6813F00C0F1A
:10172C005FD0904B5B6803F00C03082B54D02369FB
:10173C00002B00F08A808C4B01221A60FFF7E2F834
:10174C000546884B1B6813F0020F75D1FFF7DAF8CA
:10175C00401B0228F5D903208BE1824A136843F41D
:10176C0080331360636843B3FFF7CCF805467D4BB9
:10177C001B6813F4003FCBD1FFF7C4F8401B64285F
:10178C00F5D9032075E1B3F5A02F09D0754B1A6874
:10179C0022F480321A601A6822F480221A60E1E77F
:1017AC0003F18043A3F53C331A6842F480221A609B
:1017BC001A6842F480321A60D4E7FFF7A3F80546A2
:1017CC00684B1B6813F4003FA2D0FFF79BF8401B3B
:1017DC006428F5D903204CE1624B5B6813F4803F1D
:1017EC00A5D1604B1B6813F0020F04D02369012BA9
:1017FC0001D001203DE15B4A136823F0F8036169D5
:10180C0043EAC1031360236813F0080F32D0A369B5
:10181C00002B5BD0554B01221A60FFF773F805467D
:10182C00504B5B6A13F0020F21D1FFF76BF8401B92
:10183C000228F5D903201CE14A4A136823F0F80367
:10184C00616943EAC1031360DDE7474B00221A606C
:10185C00FFF758F80546434B1B6813F0020FD2D024
:10186C00FFF750F8401B0228F5D9032001E10120B5
:10187C00FFF704FF236813F0040F00F09780394B37
:10188C00DB6913F0805F33D1364BDA6942F080525A
:10189C00DA61DB6903F080530193019B0125344B22
:1018AC001B6813F4807F25D0E368012B36D0002B06
:1018BC004CD103F1804303F504331A6A22F0010280
:1018CC001A621A6A22F004021A622CE0274B0022D8
:1018DC001A60FFF717F80546224B5B6A13F0020FEC
:1018EC00C8D0FFF70FF8401B0228F5D90320C0E041
:1018FC000025D4E71E4A136843F480731360FFF786
:10190C0001F806461A4B1B6813F4807FCCD1FEF706
:10191C00F9FF801B6428F5D90320AAE0114A136A49
:10192C0043F001031362E36873B3FEF7EBFF064663
:10193C000C4B1B6A13F0020F37D1FEF7E3FF801B31
:10194C0041F288339842F3D9032092E0052B11D051
:10195C00044B1A6A22F001021A621A6A22F004027B
:10196C001A62E0E70010024000004242800442424A
:10197C0000700040414B1A6A42F004021A621A6A63
:10198C0042F001021A62CEE7FEF7BCFF06463B4B63
:10199C001B6A13F0020F08D0FEF7B4FF801B41F254
:1019AC0088339842F3D9032063E0E5B9E369002B4F
:1019BC005ED0324A526802F00C02082A5BD0022B2D
:1019CC0017D02F4B00221A60FEF79CFF04462B4BBE
:1019DC001B6813F0007F47D0FEF794FF001B022812
:1019EC00F5D9032045E0254AD36923F08053D36110
:1019FC00DCE7234B00221A60FEF784FF05461F4BE1
:101A0C001B6813F0007F06D0FEF77CFF401B0228FA
:101A1C00F5D903202DE0236AB3F5803F1AD017497E
:101A2C004B6823F47413226A606A024313434B60BD
:101A3C00134B01221A60FEF765FF04460F4B1B681F
:101A4C0013F0007F0ED1FEF75DFF001B0228F5D9C5
:101A5C0003200EE0094A536823F40033A1680B43BA
:101A6C005360DCE7002004E0002002E0012000E0ED
:101A7C00002002B070BD0120FBE700BF0010024047
:101A8C006000424210B487B0164C94E80F000DF180
:101A9C00180C0CE90F00238AADF80430124B5B686C
:101AAC0003F00C02082A1AD1C3F38342624412F8E1
:101ABC00102C13F4803F05D10C4800FB02F007B04A
:101ACC0010BC7047084B5B68C3F34043634413F886
:101ADC00143C074800FB02F0B0FBF3F0EFE70448BE
:101AEC00EDE700BFE03A00080010024000093D009D
:101AFC0000127A00594B1B6803F007038B420CD27F
:101B0C00564A136823F007030B431360136803F062
:101B1C0007038B4201D00120704770B5036813F0A6
:101B2C00020F06D04E4A536823F0F0038468234317
:101B3C0053600C460546036813F0010F52D04368FE
:101B4C00012B23D0022B28D0454A126812F0020F29
:101B5C0000F0828042494A6822F0030213434B6032
:101B6C00FEF7D0FE06466B68012B1DD0022B2AD047
:101B7C003B4B5B6813F00C0F34D0FEF7C3FE801B9D
:101B8C0041F288339842F3D9032064E0344A126856
:101B9C0012F4003FDED101205DE0314A126812F0F0
:101BAC00007FD7D1012056E02D4B5B6803F00C036E
:101BBC00042B17D0FEF7A6FE801B41F28833984207
:101BCC00F2D9032047E0264B5B6803F00C03082B8B
:101BDC0008D0FEF797FE801B41F288339842F2D969
:101BEC00032038E01D4B1B6803F00703A3420CD9FC
:101BFC001A4A136823F0070323431360136803F096
:101C0C000703A34201D0012025E02B6813F0040F39
:101C1C0006D0134A536823F4E063E9680B4353601E
:101C2C002B6813F0080F07D00D4A536823F4605348
:101C3C00296943EAC1035360FFF724FF084B5B6833
:101C4C00C3F30313074AD35CD840074B186000203A
:101C5C00FEF716FE002070BD0120FCE700200240BC
:101C6C0000100240B03A000800000020014B186838
:101C7C00704700BF0000002070B582B004460368B6
:101C8C0013F0010F34D03E4BDB6913F0805F48D169
:101C9C003B4BDA6942F08052DA61DB6903F0805326
:101CAC000193019B0125374B1B6813F4807F3AD0BD
:101CBC00334B1B6A13F4407311D0626802F4407208
:101CCC009A420CD02E4A136A23F440702E490126F6
:101CDC000E6000260E60106213F0010F37D1284AF7
:101CEC00136A23F4407361680B431362002D3FD1D8
:101CFC00236813F0020F06D0214A536823F44043A3
:101D0C00A1680B435360236813F0100F35D01C4AA5
:101D1C00536823F48003E1680B435360002002B046
:101D2C0070BD0025BFE7174A136843F48073136036
:101D3C00FEF7E8FD0646134B1B6813F4807FB7D102
:101D4C00FEF7E0FD801B6428F5D90320E7E7FEF7DA
:101D5C00D9FD06460A4B1B6A13F0020FBFD1FEF7E2
:101D6C00D1FD801B41F288339842F3D90320D6E78A
:101D7C00D36923F08053D361BAE70020CFE700BFCB
:101D8C0000100240007000404004424210B4036A4C
:101D9C00046A24F001040462846924F0F00444EA27
:101DAC00021223F00A030B438261036210BC7047DA
:101DBC0010B4036A23F0100303628469036A24F4E9
:101DCC00704444EA023223F0A00343EA0113826117
:101DDC00036210BC7047836823F0700341F0070165
:101DEC0019438160704710B4846824F47F4442EA3C
:101DFC0003230B432343836010BC704710B5046866
:101E0C00A26822F070024B68134323F007030A68A0
:101E1C001343A3604B68502B1ED00AD9602B21D0E2
:101E2C00702B05D10B698A68C9680068FFF7DBFF66
:101E3C0010BD402BFCD103681C6A1A6A22F0010207
:101E4C001A620268936923F0F003096943EA0113EB
:101E5C00936103681C62EBE70A6989680068FFF705
:101E6C0095FFE5E70A6989680068FFF7A1FFDFE7DE
:101E7C0090F83C30012B7DD010B50446012380F83E
:101E8C003C30022380F83D300268936823F47F4392
:101E9C0023F0770393600B68402B57D010D9702B2D
:101EAC003ED01FD8502B47D0602B32D1CA6849681E
:101EBC000068FFF77DFF60212068FFF78CFF28E0AA
:101ECC00102B4DD008D9202B4FD0302B21D13021C5
:101EDC000068FFF780FF1CE0DBB900210068FFF70A
:101EEC007AFF16E0B3F5805F0ED0B3F5005F10D12A
:101EFC00CB684A6889680068FFF775FF22689368A9
:101F0C0043F48043936004E00268936823F0070372
:101F1C009360012384F83D30002084F83C0010BD10
:101F2C00CB684A6889680068FFF75DFF2268936890
:101F3C0043F077039360ECE7CA6849680068FFF7E1
:101F4C0025FF50212068FFF746FFE2E7CA68496881
:101F5C000068FFF71BFF40212068FFF73CFFD8E724
:101F6C0010210068FFF737FFD3E720210068FFF747
:101F7C0032FFCEE70220704738B590F83C30012B89
:101F8C0018D00446012580F83C50022380F83D30DF
:101F9C00FFF734FF2268D36823F04003D360226834
:101FAC00D36823F48043D36084F83D50002084F838
:101FBC003C0038BD0220FCE7704770477047704703
:101FCC00704710B5044603681A6912F0020F11D05D
:101FDC00DA6812F0020F0DD06FF002021A610123C1
:101FEC00037703689B6913F0030F70D0FFF7E6FFCC
:101FFC000023237723681A6912F0040F12D0DA68D1
:10200C0012F0040F0ED06FF004021A610223237732
:10201C0023689B6913F4407F5FD02046FFF7CEFF07
:10202C000023237723681A6912F0080F12D0DA689C
:10203C0012F0080F0ED06FF008021A6104232377F8
:10204C002368DB6913F0030F4ED02046FFF7B6FF71
:10205C000023237723681A6912F0100F12D0DA6864
:10206C0012F0100F0ED06FF010021A6108232377B4
:10207C002368DB6913F4407F3DD02046FFF79EFFB9
:10208C000023237723681A6912F0010F03D0DA6852
:10209C0012F0010F36D123681A6912F0800F03D0A9
:1020AC00DA6812F0800F34D123681A6912F0400FED
:1020BC0003D0DA6812F0400F32D123681A6912F09B
:1020CC00200F03D0DA6812F0200F30D110BDFFF7CB
:1020DC0074FF2046FFF773FF8AE72046FFF76DFF7A
:1020EC002046FFF76CFF9BE72046FFF766FF204674
:1020FC00FFF765FFACE72046FFF75FFF2046FFF7D1
:10210C005EFFBDE76FF001021A612046FFF754FF36
:10211C00C1E76FF080021A61204600F08CF8C3E72B
:10212C006FF040021A612046FFF74AFFC5E76FF0D7
:10213C0020021A61204600F07DF8C7E703681B4AAD
:10214C0090420AD0B0F1804F07D0A2F59432904261
:10215C0003D002F58062904203D123F070034A68E9
:10216C001343124A90420AD0B0F1804F07D0A2F527
:10217C009432904203D002F58062904203D123F452
:10218C004073CA68134323F080034A691343036006
:10219C008B68C3620B688362044B984202D00123A4
:1021AC00436170470B690363F9E700BF002C0140E2
:1021BC00A8B110B5044690F83D305BB1022384F809
:1021CC003D30211D2068FFF7B9FF012384F83D3015
:1021DC00002010BD80F83C30FEF70AFAEEE7012033
:1021EC00704790F83C30012B22D030B4012280F89B
:1021FC003C20022380F83D300468636823F07003B0
:10220C006360046863680D682B4363600468A368AB
:10221C0023F08003A3600468A36849680B43A360A0
:10222C0080F83D20002380F83C30184630BC7047C5
:10223C00022070477047704784B001A880E80E00F8
:10224C00002004B07047B0F8403043F43F43A0F88E
:10225C00403000207047B0F8403023F474535B04D6
:10226C005B0CA0F84030002070470020704784B011
:10227C0038B505AC84E80E000123A0F840300024EA
:10228C00A0F84040A0F84440A0F85040FFF7DBFF16
:10229C002046BDE8384004B0704710B4CB78032B0F
:1022AC000FD8DFE803F0026D54600A7830F8223062
:1022BC009BB223F4EC4323F0700343F4007320F837
:1022CC0022300A7830F8223023F0F0031B051B0D66
:1022DC00134343F4004343F0800320F822308B7AFD
:1022EC00002B40F0AF804B78002B56D08A885208D8
:1022FC00B0F850300C7803EBC40300EB43035200EE
:10230C00C3F800240A7830F8223013F0400F0BD0B9
:10231C0030F8223023F0F0031B051B0D43F400436F
:10232C0043F0C00320F822300A7830F822309BB2F8
:10233C0023F4E04323F0400383F0200343F40043F1
:10234C0043F0800320F82230002010BC70470A783C
:10235C0030F822309BB223F4EC4323F070039BB291
:10236C0020F82230ADE70A7830F822309BB223F403
:10237C00EC4323F0700343F4C06320F82230A0E751
:10238C000A7830F822309BB223F4EC4323F070032C
:10239C0043F4806320F8223093E78A885208B0F81F
:1023AC0050300C7803EBC403043300EB43035200AE
:1023BC00C3F80024B0F850300A7803EBC20306339C
:1023CC0000EB43030C693E2C30D9C4F34F1214F0CC
:1023DC001F0F01D1013A92B26FEAC2626FEA524208
:1023EC0092B2C3F800240A7830F8223013F4804FEC
:1023FC000BD030F8223023F0F0031B051B0D43F4F7
:10240C00404343F0800320F822300A7830F8223021
:10241C009BB223F4804323F0700383F4405343F4C2
:10242C00004343F0800320F822308DE7C4F34F02C1
:10243C0014F0010F01D0013292B2920292B2C3F8A1
:10244C000024D0E70A7830F8223023F4F8731B0507
:10245C001B0D43F4014343F0800320F82230CA885B
:10246C005208B0F850300C7803EBC40300EB430374
:10247C005200C3F800240A895208B0F850300C7886
:10248C0003EBC403043300EB43035200C3F80024F2
:10249C004B78002B4BD10A7830F8223013F4804F54
:1024AC000BD030F8223023F0F0031B051B0D43F446
:1024BC00404343F0800320F822300A7830F8223071
:1024CC0013F0400F0BD030F8223023F0F0031B0533
:1024DC001B0D43F4004343F0C00320F822300A786C
:1024EC0030F8223023F0F0031B051B0D43F400439E
:1024FC0043F0C00320F822300A7830F822309BB227
:10250C0023F4804323F0700383F4405348F2800497
:10251C00234320F822300A7830F822309BB223F47F
:10252C00E04323F04003234320F822300CE70A78E1
:10253C0030F8223013F4804F0BD030F8223023F0D7
:10254C00F0031B051B0D43F4404343F0800320F8BC
:10255C0022300A7830F8223013F0400F0BD030F8CC
:10256C00223023F0F0031B051B0D43F4004343F012
:10257C00C00320F822300A7830F8223023F0F00320
:10258C001B051B0D43F4404343F0800320F822301D
:10259C000B7830F8232092B222F4E04222F0400271
:1025AC0048F28004224320F823200A7830F82230A5
:1025BC009BB223F4804323F07003234320F8223092
:1025CC00C2E68B7A002B44D14B780BB30A7830F8E7
:1025DC00223013F0400F0BD030F8223023F0F003F0
:1025EC001B051B0D43F4004343F0C00320F82230BD
:1025FC000A7830F822309BB223F4E04323F04003F6
:10260C0043F4004343F0800320F82230002070474D
:10261C000A7830F8223013F4804F0BD030F8223087
:10262C0023F0F0031B051B0D43F4404343F08003E0
:10263C0020F822300A7830F822309BB223F4804301
:10264C0023F0700343F4004343F0800320F822305E
:10265C00DCE710B44B78002B4BD10A7830F82230E1
:10266C0013F4804F0BD030F8223023F0F0031B050D
:10267C001B0D43F4404343F0800320F822300A78CA
:10268C0030F8223013F0400F0BD030F8223023F00A
:10269C00F0031B051B0D43F4004343F0C00320F86B
:1026AC0022300A7830F8223023F0F0031B051B0D82
:1026BC0043F4004343F0C00320F822300B7830F889
:1026CC00232092B222F4804222F0700248F280045D
:1026DC00224320F823200A7830F822309BB223F4CE
:1026EC00E04323F04003234320F82230002010BCA9
:1026FC0070470A7830F8223013F4804F0BD030F842
:10270C00223023F0F0031B051B0D43F4404343F030
:10271C00800320F822300A7830F8223013F0400F72
:10272C000BD030F8223023F0F0031B051B0D43F4C3
:10273C00004343F0C00320F822300A7830F82230EE
:10274C0023F0F0031B051B0D43F4404343F08003BF
:10275C0020F822300B7830F8232092B222F4E04299
:10276C0022F0400248F28004224320F823200A7809
:10277C0030F822309BB223F4804323F070032343C0
:10278C0020F82230B2E70A788AB14B7813BB30F8C4
:10279C0022309BB223F4804323F0700383F48053E4
:1027AC0043F4004343F0800320F8223010E030F86B
:1027BC0022309BB223F4804323F0400383F48053F4
:1027CC0083F0100343F4004343F0800320F82230DD
:1027DC000020704730F822309BB223F4E04323F002
:1027EC00400383F0100343F4004343F0800320F8CC
:1027FC002230EDE74B781BB30A7830F8223013F017
:10280C00400F0BD030F8223023F0F0031B051B0DCA
:10281C0043F4004343F0C00320F822300A7830F828
:10282C0022309BB223F4E04323F0400383F03003C7
:10283C0043F4004343F0800320F82230002070471B
:10284C000A7830F8223013F4804F0BD030F8223055
:10285C0023F0F0031B051B0D43F4404343F08003AE
:10286C0020F822300A7830F822309BB223F48043CF
:10287C0023F0700383F4405343F4004343F080038C
:10288C0020F82230DAE711B98023A0F84C30002070
:10289C0070470020704700207047B0F84400704724
:1028AC000020704701335B1000EB420202F580629E
:1028BC0063B110B40C78487844EA002422F8044B35
:1028CC000231013B002BF5D110BC70477047F8B5B5
:1028DC008A694D78012D34D00B69934280F0EA80DF
:1028EC00D21A8A618A7A002A40F0F480B0F850201B
:1028FC000C7802EBC402063200EB42023E2B40F293
:10290C00DD80C3F34F1413F01F0F01D1013CA4B2AF
:10291C006FEAC4646FEA5444A4B2C2F800440A7863
:10292C0030F822309BB223F4804323F0700383F4FD
:10293C00405343F4004343F0800320F8223000203E
:10294C00F8BD0F69974225D2D21B8A610E46044608
:10295C008B7A1BB30B7830F8232012F0400F69D020
:10296C00002D37D1B0F8502002EBC303063300EB37
:10297C0043033E2F22D9C7F34F1217F01F0F01D17B
:10298C00013A92B26FEAC2626FEA524292B2C3F853
:10299C00002428E000238B611746D7E7BBB28A8856
:1029AC004969FFF77FFFB4F85030327803EBC2036C
:1029BC00023304EB4303C3F800742AE0C7F34F025D
:1029CC0017F0010F01D0013292B2920292B2C3F809
:1029DC00002408E0B0F8502002EBC303023300EBF4
:1029EC004303C3F800743289BBB271692046FFF708
:1029FC0059FF7378002B4DD1327834F8223023F004
:102A0C00F0031B051B0D43F4004343F0C00324F8F3
:102A1C002230327834F822309BB223F4E04323F096
:102A2C00400383F0300343F4004343F0800324F865
:102A3C00223084E71DBBB0F8502002EBC3030233F5
:102A4C0000EB43033E2F0ED9C7F34F1217F01F0FA5
:102A5C0001D1013A92B26FEAC2626FEA524292B26B
:102A6C00C3F8002414E0C7F34F0217F0010F01D094
:102A7C00013292B2920292B2C3F8002408E0B0F88C
:102A8C00502002EBC303023300EB4303C3F8007482
:102A9C00F288A9E7012BBCD1327834F8223023F02C
:102AAC00F0031B051B0D43F4404343F0800324F853
:102ABC002230AEE700238B61134613E7C3F34F04B8
:102ACC0013F0010F01D00134A4B2A402A4B2C2F8D5
:102ADC00004424E7BDB9B0F850200C7802EBC402D6
:102AEC00023200EB42023E2B28D9C3F34F1413F0F1
:102AFC001F0F01D1013CA4B26FEAC4646FEA5444C5
:102B0C00A4B2C2F800444A7882BBB0F850200C78CA
:102B1C0002EBC402063200EB42023E2B1AD9C3F37D
:102B2C004F1413F01F0F01D1013CA4B26FEAC4641F
:102B3C006FEA5444A4B2C2F80044F0E6C3F34F0465
:102B4C0013F0010F01D00134A4B2A402A4B2C2F854
:102B5C000044D8E7C3F34F0413F0010F01D0013444
:102B6C00A4B2A402A4B2C2F80044D8E6012A7FF4AD
:102B7C00D6AEB0F850200C7802EBC402023200EB57
:102B8C004202C2F80034CAE601335B1000EB420289
:102B9C0002F5806204E0106821F8020B013B04325C
:102BAC00002BF8D17047D0F818321BB10020C3F8B5
:102BBC00140270470220704710B5D0F81842D0F8B4
:102BCC001C325BB194F80002FF2807D09B6894F884
:102BDC00012221469847FF2384F80032002010BDC3
:102BEC0043230380004870470C00002043230380DC
:102BFC000048704750000020432303800048704772
:102C0C00940000200A23038000487047D80000205D
:102C1C0038B50446D0F8185200F0D6FEC5F80C02B0
:102C2C00D4F818324BB1D4F81C32DB6805F50371BB
:102C3C00D5F804029847002038BD0220FCE70000BC
:102C4C0070B505460C46D0F818620B7813F060028C
:102C5C0025D0202A07D1CA883AB9D0F81C329B68F3
:102C6C00002248789847002070BD13F0800F0BD0DD
:102C7C00D0F81C329B68314660789847E288314620
:102C8C00284600F071FCEEE74B7886F80032CB88D2
:102C9C0086F80132CA88314600F07BFCE3E74B78BA
:102CAC000A2BE0D10122024900F05EFCDBE700BFF9
:102CBC002C02002010B50446812100F01EFE0121DB
:102CCC00204600F01AFE8221204600F016FED4F8B1
:102CDC00183253B1D4F81C325B689847D4F81802F8
:102CEC0000F07CFE0023C4F81832002010BD38B56B
:102CFC000446037C73BB4FF400730222812100F065
:102D0C00EBFD4FF4007302220121204600F0E4FD9C
:102D1C00082303228221204600F0DEFD4FF40770C9
:102D2C0000F058FE0546C4F8180248B3D4F81C321B
:102D3C001B6898470023C5F81432C5F81832237C59
:102D4C00A3B14023D5F804220121204600F02EFE29
:102D5C00002038BD40230222812100F0BDFD40231C
:102D6C0002220121204600F0B7FDD1E74FF4007399
:102D7C00D5F804220121204600F018FE0020E8E7D7
:102D8C000120E6E719B1C0F81C12002070470220A0
:102D9C007047D0F81832C3F80812C3F8102200207C
:102DAC007047D0F81832C3F8041200207047D0F8DE
:102DBC0018228AB108B5D2F814320BB1012008BD23
:102DCC000123C2F81432B2F81032D2F80822812151
:102DDC0000F0DEFD0020F2E702207047D0F8182248
:102DEC009AB108B5037C3BB14023D2F804220121EF
:102DFC0000F0DCFD002008BD4FF40073D2F8042273
:102E0C00012100F0D3FD0020F5E70220704798B1B6
:102E1C0008B50346D0F8140210B10020C3F8140210
:102E2C0009B1C3F810121846012380F8FC31027066
:102E3C0000F0FAFC002008BD0220704719B1C0F860
:102E4C001412002070470220704708B500F036FDC0
:102E5C00002008BD08B5D0F8143233B11B68984770
:102E6C0008B9002008BD0220FCE70220FAE708B5EB
:102E7C00D0F814325B689847002008BD38B504467A
:102E8C0000F50275284600F00CF90123C4F8F43162
:102E9C00B4F80E32C4F8F83194F8081201F01F039C
:102EAC00012B0ED03BB1022B10D001F0800120463B
:102EBC0000F031FD03E02946204600F06CFA0020BA
:102ECC0038BD2946204600F08AFAF8E72946204604
:102EDC0000F0A1FAF3E710B5044621BB1346D0F875
:102EEC00F421032A01D0002010BDD0F80C11D0F829
:102EFC00102191420CD8D0F814321B6923B190F8F0
:102F0C00FC21032A00D19847204600F059FBEAE740
:102F1C00891AC0F80C118A4228BF0A4692B2194687
:102F2C0000F046FBDFE70A46D0F814329B69002B11
:102F3C00D9D090F8FC110329D5D111469847D2E786
:102F4C0010B50446002946D11346D0F8F421022AC4
:102F5C0005D094F80032012B39D0002010BDC16986
:102F6C00026A914219D88169B1FBF2F302FB131387
:102F7C002BB98A4203D8D0F8F83199421AD3D4F835
:102F8C001432DB682BB194F8FC21032A01D12046C2
:102F9C009847204600F01FFBDBE78A1AC26192B209
:102FAC00194600F0EEFA00231A461946204600F0A6
:102FBC00FDFCCEE70022114600F0E3FA0021C4F834
:102FCC00F8110B460A46204600F0F0FCC1E700233E
:102FDC0084F80032C1E70A46D0F814325B69002B42
:102FEC00BBD090F8FC110329B7D111469847B4E730
:102FFC0038B5044640230022114600F06DFC4025F4
:10300C00C4F810512B4600228021204600F064FCAD
:10301C002562012384F8FC31D4F818322BB1D4F892
:10302C0014325B68217920469847002038BD017422
:10303C000020704790F8FC3180F8FD31042380F8B3
:10304C00FC310020704790F8FD3180F8FC310020F5
:10305C00704708B590F8FC31032B01D0002008BD57
:10306C00D0F81432DB69002BF8D09847F6E7002330
:10307C0002E00133DBB201300278002AF9D11846A4
:10308C0070474B88012B0BD110B50446C0F80432A5
:10309C00D0F814329B689847204600F091FA10BD86
:1030AC0070470B7803704B7843708B78CA7803EBBE
:1030BC00022343800B794A7903EB022383808B79BB
:1030CC00CA7903EB0223C380704710B504468021F4
:1030DC0000F021FC0021204600F01DFC10BD30B595
:1030EC0083B004460D464A88130A013B062B00F2B6
:1030FC008180DFE803F00413277F7F637000D0F832
:10310C0010321B680DF10601007C9847BDF80620B3
:10311C0012B1EB88002B71D103B030BD037C43B9E5
:10312C00D0F814329B6A0DF10600984702234370C5
:10313C00ECE7D0F81432DB6A0DF106009847022355
:10314C004370E3E7D2B2052A34D8DFE802F0030B70
:10315C00131B232BD0F810325B680DF10601007C99
:10316C009847D3E7D0F810329B680DF10601007C2C
:10317C009847CBE7D0F81032DB680DF10601007CE4
:10318C009847C3E7D0F810321B690DF10601007C9B
:10319C009847BBE7D0F810325B690DF10601007C53
:1031AC009847B3E7D0F810329B690DF10601007C0B
:1031BC009847ABE72946FFF788FFADE7037C33B9A7
:1031CC00D0F814325B6B0DF1060098479EE7294648
:1031DC00FFF77BFFA0E7037C43B9D0F814321B6BDD
:1031EC000DF106009847072343708FE72946FFF738
:1031FC006CFF91E72946FFF768FF8DE79A4228BFDD
:10320C001A46ADF806200146204600F0ADF983E7DA
:10321C0038B504468B88E3B9CB88D3B98D7805F0E3
:10322C007F0590F8FC31032B0CD080F8FE51294619
:10323C0000F0A0FB204600F0C3F935B1022384F85E
:10324C00FC3109E0FFF741FF06E0012384F8FC3173
:10325C0002E02046FFF739FF38BD000038B50446C0
:10326C000D468978254B1970012909D890F8FC3145
:10327C00022B09D0032B1CD02946FFF726FF02E0B6
:10328C002946FFF722FF38BD81B14160032380F846
:10329C00FC31FFF7DFFD022803D0204600F090F947
:1032AC00F1E729462046FFF710FFECE700F088F91C
:1032BC00E9E789B1436899421DD0D9B2FFF7D7FD30
:1032CC000E4B197861602046FFF7C4FD02280DD023
:1032DC00204600F075F9D6E7022380F8FC314160F6
:1032EC00FFF7C5FD204600F06BF9CCE729462046D8
:1032FC00FFF7EBFEC7E700F063F9C4E72D020020EF
:10330C0008B5CB88012B08D190F8FC31022B07D0E3
:10331C00032B0DD0FFF7D9FE01E0FFF7D6FE08BD59
:10332C000146002341F8083F012200F01DF9F6E7A1
:10333C000122011D00F018F9F1E708B590F8FC31F5
:10334C00023B012B0CD80123C360D0F804320BB123
:10335C000323C360022200F10C0100F005F908BD43
:10336C00FFF7B3FEFBE710B5044690F8FC31023BC7
:10337C00012B0DD84B88012B09D10023C0F8043246
:10338C00D0F814329B689847204600F019F910BD0C
:10339C00FFF79BFEFBE708B54B78092B1CD8DFE841
:1033AC0003F012181B151B09051B0F0CFFF797FEDA
:1033BC00002008BDFFF72CFFFAE7FFF74FFFF7E7F8
:1033CC00FFF79EFFF4E7FFF7B8FFF1E7FFF759FEB1
:1033DC00EEE7FFF7C8FFEBE7FFF777FEE8E738B556
:1033EC0004460D4690F8FC31032B11D10B79012BBF
:1033FC000BD8D0F814329B689847EB880BB100209F
:10340C0038BD204600F0DCF8F9E7FFF75EFEF6E782
:10341C00FFF75BFEF3E738B505460C468A880B7858
:10342C0003F06003202B05D1D0F814329B68984729
:10343C00002038BDD1B26378012B25D0002B47D0AA
:10344C00032BF5D190F8FC31022B05D0032B0AD0BD
:10345C002146FFF73AFEEBE70029E9D08029E7D0B7
:10346C0000F059FAE4E7638823B919B1802901D037
:10347C0000F051FAD5F814329B682146284698473B
:10348C00284600F09DF8D3E790F8FC31022B05D0CC
:10349C00032B0AD02146FFF718FEC9E70029C7D035
:1034AC008029C5D000F037FAC2E76388002BBFD162
:1034BC0011F07F0F03D1284600F082F8B8E700F036
:1034CC0038FAD5F814329B68214628469847F2E71B
:1034DC0090F8FC31022B05D0032B09D02146FFF7C5
:1034EC00F4FDA5E711F07F0FA2D000F014FA9FE7CE
:1034FC0012F0800F11D101F07F04103400EB041492
:10350C000434284600F023FA70B101232360022210
:10351C002146284600F028F88AE701F07F040134A0
:10352C0000EB04140434ECE700232360EFE7D0B184
:10353C0070B50D4616460446FFF799FD0130400064
:10354C0080B23080287003236B70022307E00134B3
:10355C005A1CD2B2E9540233DBB20021A9542178AF
:10356C000029F4D170BD704710B513460222C0F883
:10357C00F4218361C3610A46002100F009FA00209E
:10358C0010BD08B513460A46002100F001FA0020D0
:10359C0008BD10B513460322C0F8F421C0F8083159
:1035AC00C0F80C310A46002100F000FA002010BDD2
:1035BC0008B513460A46002100F0F8F9002008BDB2
:1035CC0008B50423C0F8F43100231A46194600F05C
:1035DC00DFF9002008BD08B50523C0F8F43100233D
:1035EC001A46194600F0E2F9002008BD10B5094C46
:1035FC00002209492046FFF70AFC08492046FFF73C
:10360C001DFC07492046FFF7BDFB2046FFF71DFCBC
:10361C0010BD00BF1805002044010020E40000206C
:10362C001C010020002070470020704710B5054C8D
:10363C0001462046FFF7B5FB2046FFF7CFFB0020E5
:10364C0010BD00BF1805002010B5064C002206491D
:10365C002046FFF79EFB05492046FFF7A2FB002002
:10366C0010BD00BF18050020240B00203C070020D3
:10367C00094BD3F81832D3F814320BB10120704730
:10368C0010B50A460146044C2046FFF782FB204643
:10369C00FFF78DFB10BD00BF1805002012230B8017
:1036AC00004870472C01002004230B800048704711
:1036BC004001002008B50A4628B105490548FFF726
:1036CC0036FF034808BD02490248FFF730FFF8E710
:1036DC000C0F0020383B000810B5044C0A4621465C
:1036EC000348FFF724FF204610BD00BF0C0F00203D
:1036FC00543B000808B50A4628B105490548FFF7B0
:10370C0016FF034808BD02490248FFF710FFF8E70F
:10371C000C0F0020683B000808B50A4628B1054983
:10372C000548FFF704FF034808BD02490248FFF7AC
:10373C00FEFEF8E70C0F0020783B000808B50A469F
:10374C0028B105490548FFF7F2FE034808BD0249B8
:10375C000248FFF7ECFEF8E70C0F0020843B000852
:10376C0002680E4B9A4200D0704700B583B003F547
:10377C00DA33DA6942F40002DA61DB6903F400033C
:10378C000193019B002211461420FDF7D3F814205D
:10379C00FDF704F903B05DF804FB00BF005C0040CA
:1037AC0008B500F22C41D0F85C04FFF767FB08BDAC
:1037BC0008B500EB4113D3F83C22D0F85C04FFF7BA
:1037CC008AFB08BD08B500EB4113DA6BD0F85C043A
:1037DC00FFF7B6FB08BD08B5D0F85C04FFF739FC61
:1037EC0008BD10B504460121D0F85C04FFF71FFC9E
:1037FC00D4F85C04FFF7FCFB10BD000010B50446C8
:10380C00D0F85C04FFF716FCA36923B1024A1369D4
:10381C0043F00603136110BD00ED00E008B5D0F8CD
:10382C005C04FFF710FC08BD10B504462048C0F836
:10383C005C44C4F820021F4B03600823436002233E
:10384C0083600323C36000238361C3610362FDF7BC
:10385C00ABFA30BB182300221146D4F82002FDF736
:10386C00F4FE582300228021D4F82002FDF7EDFE4F
:10387C00C02300228121D4F82002FDF7E6FE4FF48C
:10388C00887300220121D4F82002FDF7DEFE4FF4EC
:10389C00807300228221D4F82002FDF7D6FE00208E
:1038AC0010BD4FF497710448FCF744FDD2E700BFFC
:1038BC000C110020005C0040943B000808B5D0F8C7
:1038CC002002FDF7DCFA18B1022803D0022008BD53
:1038DC000020FCE70120FAE710B51C4613462246EF
:1038EC00D0F82002FDF7F6FA18B1022803D0022016
:1038FC0010BD0020FCE70120FAE708B5D0F8200243
:10390C00FDF711FB18B1022803D0022008BD0020DE
:10391C00FCE70120FAE708B5D0F82002FDF740FEDD
:10392C0018B1022803D0022008BD0020FCE70120BA
:10393C00FAE708B5D0F82002FDF760FE18B10228AE
:10394C0003D0022008BD0020FCE70120FAE7D0F8E4
:10395C00203211F0800F06D101F07F0103EB4111F1
:10396C0091F82A02704701F07F0103EB411191F8A5
:10397C002A00704708B5D0F82002FDF797FA18B165
:10398C00022803D0022008BD0020FCE70120FAE742
:10399C0008B5D0F82002FDF713FB18B1022803D0AC
:1039AC00022008BD0020FCE70120FAE708B5D0F89A
:1039BC002002FDF7DFFA18B1022803D0022008BD5F
:1039CC000020FCE70120FAE708B5D0F82002FDF74B
:1039DC00F0FA08BD0048704730020020704770476D
:1039EC00002103E00B4B5B58435004310A480B4B4E
:1039FC0042189A42F6D30A4A02E0002342F8043BEA
:103A0C00084B9A42F9D3FCF76DFE00F00FF8FCF767
:103A1C005FFD7047C03B00080000002060010020E3
:103A2C00600100206C150020FEE7000070B5002539
:103A3C000C4E0D4CA41BA410A54209D100F026F885
:103A4C0000250A4E0A4CA41BA410A54205D170BD3A
:103A5C0056F8253098470135EEE756F8253098474B
:103A6C000135F2E7B83B0008B83B0008B83B00084A
:103A7C00BC3B000810B5431E0A44914200D110BD56
:103A8C0011F8014B03F8014FF7E70000F8B500BF40
:103A9C00F8BC08BC9E467047F8B500BFF8BC08BC23
:043AAC009E4670477B
:103AB00000000000000000000102030406070809DE
:103AC0000000000001020304C8000000C80000005C
:103AD00090010000C8000000E8030000C8000000DA
:103AE00002030405060708090A0B0C0D0E0F10103F
:103AF000010200002E2E2F436F72652F5372632F29
:103B00006D61696E2E6300002E2E2F436F72652F3C
:103B10005372632F73746D3332663178785F6861E6
:103B20006C5F6D73702E630048656C6C6F20576F0F
:103B3000726C64210A00000043616D65726120456A
:103B400078706F7375726520436F6E74726F6C6CF2
:103B50006572000053544D6963726F656C656374E0
:103B6000726F6E6963730000303030303030303047
:103B7000303031410000000043444320436F6E6603
:103B80006967000043444320496E7465726661634F
:103B9000650000002E2E2F5553425F444556494381
:103BA000452F5461726765742F757362645F636F2C
:083BB0006E662E6300000000A8
:043BB80031010008CF
:043BBC000D010008EF
:103BC00000A24A04010000001000000009024300A6
:103BD000020100C0320904000001020201000524B4
:103BE000001001052401000104240202052406003E
:103BF000010705820308001009040100020A000001
:103C00000007050102400000070581024000000096
:103C100009024300020100C032090400000102024F
:103C20000100052400100105240100010424020202
:103C3000052406000107058203080010090401009D
:103C4000020A0000000705010200020007058102C8
:103C50000002000009074300020104C03209040009
:103C600000010202010005240010010524010001E9
:103C7000042402020524060001070582030800FF50
:103C800009040100020A00000007050102400000CB
:103C900007058102400000000A0600020000004003
:103CA00001000000FB2C0008C12C00084D2C00086E
:103CB00000000000C52B0008B32B00081D2C0008D5
:103CC000000000000000000000000000F92B0008C8
:103CD000ED2B0008052C0008112C000855360008B3
:103CE0003136000835360008393600081201000266
:103CF0000202004083044057000201020301000059
:103D000004030904A9360008B5360008E5360008A2
:103D1000C136000801370008253700084937000878
:04000005080039EDC9
:00000001FF
